:020000040000FA
:0600000028EF01F01200E0
:020006000000F8
:08000800D9CFE6FFE1CFD9FFDB
:10001000020EE126DE6ADD6ADECF02F0DDCF03F0FC
:100020000A0E025C000E035805E2DF2A010E01E30E
:10003000DB2AF2D7020EE15C02E2E16AE552E16EF0
:10004000E552E7CFD9FF1200D9CFE6FFE1CFD9FFC4
:10005000020EE126DE6ADD6ADECF02F0DDCF03F0BC
:10006000040E025C000E035805E2DF2A010E01E3D4
:10007000DB2AF2D7020EE15C02E2E16AE552E16EB0
:10008000E552E7CFD9FF1200D9CFE6FFE1CFD9FF84
:10009000020EE1268280B8DF8290B6DFDE6ADD6A7A
:1000A000DECF02F0DDCF03F0D890035004E6080E57
:1000B000025C000E035817E2FD0EDBCF02F0FE0ECD
:1000C000DBCF03F0DE500224E96EDD500320EA6E40
:1000D000EF50E8B08280E8A0829096DFDF2A010E20
:1000E00001E3DB2ADDD782808FDF020EE15C02E2D2
:1000F000E16AE552E16EE552E7CFD9FF1200D9CFB0
:10010000E6FFE1CFD9FF020EE12682B2FED79CDFE7
:100110007BDFDE6ADD6ADECF02F0DDCF03F0D89050
:10012000035004E6080E025C000E035816E28250EB
:10013000020B01E0010EE66EDECFE9FFDDCFEAFF44
:100140008A0EE926000EEA22E552E750EF6E5CDFE8
:10015000DF2A010E01E3DB2ADED7828255DF8A0E19
:10016000026E020EE15C03E200D0E16AE552E16E4C
:100170000250E552E7CFD9FF12009490948244DFF9
:1001800063DFBDDFE66EE66A7FDFE552E552F9D751
:0201900012005B
:0E019200060EF66E000EF76E000EF86E0001FF
:1001A0000900F550856F0900F550866F03E18567FA
:1001B00001D03DD00900F550806F0900F550816FE6
:1001C0000900F550826F09000900F550E96E090039
:1001D000F550EA6E090009000900F550836F090027
:1001E000F550846F09000900F6CF87F0F7CF88F04B
:1001F000F8CF89F080C0F6FF81C0F7FF82C0F8FF1A
:100200000001835302E1845307E00900F550EE6ECC
:100210008307F8E28407F9D787C0F6FF88C0F7FFA5
:1002200089C0F8FF00018507000E865BBFD712006A
:10023000000EF36E00EE00F0060E01D81200EA6028
:1002400002D0EE6AFCD7F350E9601200EE6AFCD7E8
:1002500015EE00F025EE00F0F86A019CC9EC00F004
:0C02600036EC01F0BDEC00F0FBD7120002
:02026C0012007E
:020000040030CA
:0100010008F6
:00000001FF
