:020000040000FA
:0600000099EF01F012006F
:0A0006000100500300009400000008
:0400100007000000E5
:0C0014000001832B0A0E835D27E3836B41
:10002000822B060E825D02E3826B842B0A0E845DB6
:1000300007E3846B852B060E855D02E3856B862BBB
:100040000A0E865D02E3866B872B040E865D02E254
:10005000000E01D0010E026E020E875D02E2000E5C
:1000600001D0010E021402E0876B866B1200D9CF1B
:10007000E6FFE1CFD9FF040EE12600018239F00B43
:100080008311DF6EDF508B6E8539F00B8411E76EC4
:10009000010EE7CFDBFFDB508C6E8739F00B86114A
:1000A000E76E020EE7CFDBFFDB508A6E040EE15CE9
:1000B00002E2E16AE552E16EE552E7CFD9FF1200B4
:1000C000D9CFE6FFE1CFD9FF030EE126DF6A010EAB
:1000D000DB6A020EDB6AD9CFE9FFDACFEAFF500E06
:1000E000EE5CC30EEE58000EEF5809E2D9CFE9FFDF
:1000F000DACFEAFFEE2A000EEE22EE22ECD7030E54
:10010000E15C02E2E16AE552E16EE552E7CFD9FF38
:1001100012008050010B12E0000189510FE1090E1D
:10012000845D02E2842B0AD0090E845D03E3846BB4
:10013000852B04D0090E855D01E3856B8050020B91
:1001400012E0000189510FE1090E865D02E2862B63
:100150000AD0090E865D03E3866B872B04D0875196
:10016000020801E2876B8050010B13E00001890552
:1001700010E1090E0001965D02E2962B0AD0090EED
:10018000965D03E3966B972B04D0090E975D01E310
:10019000976B8050020B13E00001890510E1090EF6
:1001A0000001985D02E2982B0AD0090E985D03E3E6
:1001B000986B992B04D09951020801E2996B1200B7
:1001C00000019439F00B95118B6E9739F00B961155
:1001D0008C6E9939F00B98118A6E010E9A6F12008D
:1001E000000185510001975D16E100018451000175
:1001F000965D11E1000187510001995D0CE100015C
:1002000086510001985D07E10001895104E1000178
:100210009A0501E1848012000F0EC16E9268936A04
:10022000946A956A966AF6DE80A414D0010EE66E92
:10023000E66A46DFE552E552010EE66EE66A40DF09
:10024000E552E55280A404D00001010E896F02D06E
:100250000001896B0001890502E1B2DF01D007DFEF
:1002600058DFBEDF010EE66EE66A2ADFE552E55290
:04027000DAD71200C7
:0C027400060EF66E000EF76E000EF86E1F
:1002800000010900F5508F6F0900F550906F03E1F0
:100290008F6701D03DD00900F5508A6F0900F550F5
:1002A0008B6F0900F5508C6F09000900F550E96E5D
:1002B0000900F550EA6E090009000900F5508D6F3C
:1002C0000900F5508E6F09000900F6CF91F0F7CFC5
:1002D00092F0F8CF93F08AC0F6FF8BC0F7FF8CC086
:1002E000F8FF00018D5302E18E5307E00900F5503D
:1002F000EE6E8D07F8E28E07F9D791C0F6FF92C037
:10030000F7FF93C0F8FF00018F07000E905BBFD787
:020310001200D9
:0E031200000EF36E00EE00F0060E01D8120091
:10032000EA6002D0EE6AFCD7F350E9601200EE6A90
:02033000FCD7F8
:0E03320015EE00F025EE00F0F86A019C3AECA2
:0E03400001F0A7EC01F00CEC01F0FBD712006D
:02034E0012009B
:0703500000000000000000A6
:00000001FF
