:020000040000FA
:06000000F7EF00F0120012
:0A00060001000C0200008000000061
:0400100040000000AC
:0C001400D9CFE6FFE1CFD9FF020EE126B4
:10002000DE6ADD6ADECF02F0DDCF03F0D890035048
:1000300004E6200E025C030E035805E2DF2A010EDF
:1000400001E3DB2AEFD7020EE15C02E2E16AE5524E
:10005000E16EE552E7CFD9FF12000001CA6BCB6B0E
:10006000360ECBAF02D0D89003D0CA5D000ECB596C
:1000700056E2CC6BCD6B080ECDAF02D0D89003D03A
:10008000CC5D000ECD5947E2CD3504E2CC510708D6
:10009000000ECD550BE3800ECCC0E7FFE75204E025
:1000A000E8427F0BE706FCE1836E12D0CCC002F081
:1000B000CDC003F0060E025E000E035A800E02C091
:1000C000E7FFE75204E0E8427F0BE706FCE1836EBE
:1000D0000001CA51CC25E96ECB51CD21EA6E070E45
:1000E000E926000EEA22800EE926000EEA22EF50F1
:1000F000826ECA51CC25E96ECB51CD21EA6E800EBD
:10010000E926000EEA22EF50816E84DF0001CC2B3D
:10011000000ECD23B0D7CA2B000ECB23A1D71200DF
:10012000956A946A936A0F0EC16E97DFFED712002C
:10013000060EF66E000EF76E000EF86E0001090056
:10014000F550C56F0900F550C66F03E1C56701D0D2
:100150003DD00900F550C06F0900F550C16F09008E
:10016000F550C26F09000900F550E96E0900F5501D
:10017000EA6E090009000900F550C36F0900F55047
:10018000C46F09000900F6CFC7F0F7CFC8F0F8CF69
:10019000C9F0C0C0F6FFC1C0F7FFC2C0F8FF000140
:1001A000C35302E1C45307E00900F550EE6EC307E4
:1001B000F8E2C407F9D7C7C0F6FFC8C0F7FFC9C047
:0E01C000F8FF0001C507000EC65BBFD7120096
:0201CE00000E21
:1001D000F36E00EE00F0060E01D81200EA6002D0C5
:0E01E000EE6AFCD7F350E9601200EE6AFCD71D
:0201EE0015EE0C
:1001F00000F025EE00F0F86A019C98EC00F005ECA8
:0A02000001F090EC00F0FBD71200B3
:02020A001200E0
:04020C00FFFFFFFFF2
:10021000FFFFFFFFFF7E66660000FF00F9F3F3F9C2
:1002200000FF66666600003F1986E6E60000FFCD27
:1002300086323232189CFF003C3C3C0000FF009F9D
:0C024000E7F900FFFFFFFFFFFFFFFFFFDB
:00000001FF
